:020000040000fa
:080000000002040000000000f2
:020000040000fa
:10000800c8020000c8020000c8020000c8020000c0
:10001800c8020000c8020000c8020000c8020000b0
:10002800c8020000c8020000c80200005a9200007e
:10003800c8020000c8020000c8020000c802000090
:100048003a930000c8020000c80200003c98000073
:1000580030980000c8020000c8020000c802000072
:10006800c8020000c8020000c8020000c802000060
:10007800c8020000c8020000c8020000c802000050
:10008800c8020000c8020000c8020000c802000040
:10009800fc930000c802000070980000c80200002d
:1000a800c8020000c8020000c8020000c802000020
:1000b800c8020000c8020000c8020000c802000010
:1000c800c8020000c8020000c8020000c802000000
:1000d800c8020000c8020000c8020000c8020000f0
:1000e800e8940000c8020000c8020000c80200002e
:1000f800aa950000c8020000c8020000c80200005b
:10010800c8020000c8020000c8020000c8020000bf
:10011800c8020000c8020000c8020000c8020000af
:10012800c8020000c8020000c8020000c80200009f
:10013800c8020000c8020000c8020000c80200008f
:10014800c8020000c8020000c8020000c80200007f
:10015800c8020000c8020000c8020000c80200006f
:10016800c8020000c8020000a4980000c8020000ed
:10017800c8020000c8020000c8020000c80200004f
:10018800c8020000c8020000c8020000c80200003f
:10019800c8020000c8020000c8020000c80200002f
:1001a800c8020000c8020000c8020000c80200001f
:1001b800c8020000c8020000c8020000c80200000f
:1001c800c8020000c8020000c8020000c8020000ff
:1001d800c8020000c8020000c8020000c8020000ef
:1001e800c8020000c8020000c8020000c8020000df
:1001f800c8020000c8020000c8020000c8020000cf
:10020800c8020000c8020000c8020000c8020000be
:10021800c8020000c8020000c8020000c8020000ae
:10022800c8020000c8020000c8020000c80200009e
:10023800c8020000c8020000c8020000c80200008e
:10024800c8020000c8020000c8020000c80200007e
:10025800c8020000c8020000c8020000c80200006e
:020000040000fa
:10040000efe322000eff2d000e0188000000000027
:100410000c000700a0792b00010020000f0007004e
:10042000000020000000e000020032000000020096
:10043000000000009eb90200000000000040da0049
:100440000000fe00000020000000e000020032007a
:10045000000020009001880000000600a102880032
:10046000800078000000eb001a003700e2804000b6
:1004700054a0b4009101ba00e280400054a0b4003e
:100480009102ba00e280400054a0b4000002eb00e8
:10049000472bde00f507b200a6018800602ce100c2
:1004a00008003a000049eb000201e80002003900b0
:1004b0003420ec0002f0a0008301e900f9ff3e00c7
:1004c000040037006128e100010032000082eb00e7
:1004d000040007001101ba000200e000e3ff3a0047
:1004e0000000060004d0a300e20f49001c00390000
:1004f000810278003549ba000201e80002003900a3
:100500003420ec0002f0a0008301e9000f0032006b
:100510002549ba000201e800020039003420ec004d
:1005200002f0a0008301e900080032000400e000ae
:100530000600320015c9ba000201e80002003900c5
:100540003420ec0002f0a0008301e9008180e80083
:1005500054a0b4000300e000e2ff3a0000000600ef
:100560009102ba00055978008301e900f7ff3200d3
:10057000c82ade00055978008301e900f3ff320044
:100580000400e000f1ff320011d9ba00eeff37009d
:100590000040da000000fe00839f68000100e000d8
:1005a00002003d0060001000e08018000300e00041
:1005b00002003d0060011100e081190014000700f5
:1005c0004f00e00002003b0060001000e0801800d7
:1005d00000000600811f78000100e00002003d00dd
:1005e00060001000e08018000300e00002003d0001
:1005f00060011100e0811900150007004f00e000c4
:1006000002003b0060001000e080180000000600bf
:100610006022b800060220000000d0008180d200d5
:100620000482d2008582d2000000a00002025200a3
:1006300083825a00030031000202420083824a0092
:100640000000a1000603e900f3ff3a0000000600e5
:0c065000efff07000400be0000000600e1
:020000040000fa
:10065c000000fa0080b92200104078008040780039
:10066c00f0002000d04207000080fa0000000600d5
:10067c000000fa0090b92200104078008040780009
:10068c0080022000c84207000080fa00000006002b
:10069c000000fa00a0b922001040780080407800d9
:1006ac0090022000c0420700b0b922001040780030
:1006bc008040780030032000bb420700c0b9220004
:1006cc001040780080407800d0032000b64207002c
:1006dc000080fa00000006000000fa00d0b92200e9
:1006ec001040780080407800800c2000ae4207005b
:1006fc000080fa00000006000000fa00e0b92200b9
:10070c00104078008040780050042000a64207007a
:10071c00f0b922001040780080407800b00420002e
:10072c00a14207000080fa00000006000000fa0059
:10073c0000ba22001040780080407800f0042000bd
:10074c009942070010ba22001040780080407800cf
:10075c0050052000944207000080fa0000000600bb
:10076c000000fa0020ba2200104078008040780087
:10077c00900520008c42070030ba2200104078000f
:10078c0080407800f0052000874207000080fa00c6
:10079c00000006000c00fa000040eb00004f78004f
:1007ac00705d8100807189001e4078008080fb00a4
:1007bc0010e32200104078008100e80000f7780078
:1007cc001e4fe8001e4078008080fb0000e32200f2
:1007dc00104078008100e80000f778001e4fe80018
:1007ec00805d8100807189001e4078008080fb0054
:1007fc0010e32200104078008100e80000f7780038
:10080c001e4fe8001e4078008080fb0000e32200b1
:10081c00104078008100e80000f778001e4fe800d7
:10082c00905d8100807189001e4078008080fb0003
:10083c0010e32200104078008100e80000f77800f7
:10084c001e4fe8001e4078008080fb0000e3220071
:10085c00104078008100e80000f778001e4fe80097
:10086c00a05d8100807189001e4078008080fb00b3
:10087c0010e32200104078008100e80000f77800b7
:10088c001e4fe8001e4078008080fb0000e3220031
:10089c00104078008100e80000f778001e4fe80057
:1008ac00b05d8100807189001e4078008080fb0063
:1008bc0010e32200104078008100e80000f7780077
:1008cc001e4fe8001e4078008080fb0000e32200f1
:1008dc00104078008100e80000f778001e4fe80017
:1008ec000e00e800000178009e407800400b2000cc
:1008fc006e4207000080fa00000006000c00fa00af
:10090c000040eb00004f7800105e81008071890080
:10091c001e4078008080fb0010e32200104078001d
:10092c008100e80000f778001e4fe8001e407800b8
:10093c008080fb0000e32200104078008100e8007a
:10094c0000f778001e4fe800205e8100807189005e
:10095c001e4078008080fb0010e3220010407800dd
:10096c008100e80000f778001e4fe8001e40780078
:10097c008080fb0000e32200104078008100e8003a
:10098c0000f778001e4fe800305e8100807189000e
:10099c001e4078008080fb0010e32200104078009d
:1009ac008100e80000f778001e4fe8001e40780038
:1009bc008080fb0000e32200104078008100e800fa
:1009cc0000f778001e4fe800405e810080718900be
:1009dc001e4078008080fb0010e32200104078005d
:1009ec008100e80000f778001e4fe8001e407800f8
:1009fc008080fb0000e32200104078008100e800ba
:100a0c0000f778001e4fe8000e00e80000017800a7
:100a1c009e407800a00b2000244207000080fa00c2
:100a2c00000006001600fa000040eb00004f7800b2
:100a3c00605e8100807189001e4078008080fb0020
:100a4c0010e32200104078008100e80000f77800e5
:100a5c001e4fe8001e4078008080fb0000e322005f
:100a6c00104078008100e80000f778001e4fe80085
:100a7c00705e8100807189001e4078008080fb00d0
:100a8c0010e32200104078008100e80000f77800a5
:100a9c001e4fe8001e4078008080fb0000e322001f
:100aac00104078008100e80000f778001e4fe80045
:100abc00805e8100807189001e4078008080fb0080
:100acc0010e32200104078008100e80000f7780065
:100adc001e4fe8001e4078008080fb0000e32200df
:100aec00104078008100e80000f778001e4fe80005
:100afc00905e8100807189001e4078008080fb0030
:100b0c0010e32200104078008100e80000f7780024
:100b1c001e4fe8001e4078008080fb0000e322009e
:100b2c00104078008100e80000f778001e4fe800c4
:100b3c00a05e8100807189001e4078008080fb00df
:100b4c0010e32200104078008100e80000f77800e4
:100b5c001e4fe8001e4078008080fb0000e322005e
:100b6c00104078008100e80000f778001e4fe80084
:100b7c00b05e8100807189001e4078008080fb008f
:100b8c0010e32200104078008100e80000f77800a4
:100b9c001e4fe8001e4078008080fb0000e322001e
:100bac00104078008100e80000f778001e4fe80044
:100bbc000e00e800000178009e407800000c200038
:100bcc00ba4107000080fa00000006000c00fa0091
:100bdc000040eb00004f7800205f8100807189009d
:100bec001e4078008080fb0010e32200104078004b
:100bfc008100e80000f778001e4fe8001e407800e6
:100c0c008080fb0000e32200104078008100e800a7
:100c1c0000f778001e4fe800305f8100807189007a
:100c2c001e4078008080fb0010e32200104078000a
:100c3c008100e80000f778001e4fe8001e407800a5
:100c4c008080fb0000e32200104078008100e80067
:100c5c0000f778001e4fe800405f8100807189002a
:100c6c001e4078008080fb0010e3220010407800ca
:100c7c008100e80000f778001e4fe8001e40780065
:100c8c008080fb0000e32200104078008100e80027
:100c9c0000f778001e4fe800505f810080718900da
:100cac001e4078008080fb0010e32200104078008a
:100cbc008100e80000f778001e4fe8001e40780025
:100ccc008080fb0000e32200104078008100e800e7
:100cdc0000f778001e4fe800605f8100807189008a
:100cec001e4078008080fb0010e32200104078004a
:100cfc008100e80000f778001e4fe8001e407800e5
:100d0c008080fb0000e32200104078008100e800a6
:100d1c0000f778001e4fe8000e00e8000001780094
:100d2c009e40780040292000604107000080fa00b6
:100d3c00000006000c00fa000040eb00004f7800a9
:100d4c00c05f8100807189001e4078008080fb00ac
:100d5c0010e32200104078008100e80000f77800d2
:100d6c001e4fe8001e4078008080fb0000e322004c
:100d7c00104078008100e80000f778001e4fe80072
:100d8c00d05f8100807189001e4078008080fb005c
:100d9c0010e32200104078008100e80000f7780092
:100dac001e4fe8001e4078008080fb0000e322000c
:100dbc00104078008100e80000f778001e4fe80032
:100dcc0080608100807189001e4078008080fb006b
:100ddc0010e32200104078008100e80000f7780052
:100dec001e4fe8001e4078008080fb0000e32200cc
:100dfc00104078008100e80000f778001e4fe800f2
:100e0c0090608100807189001e4078008080fb001a
:100e1c0010e32200104078008100e80000f7780011
:100e2c001e4fe8001e4078008080fb0000e322008b
:100e3c00104078008100e80000f778001e4fe800b1
:100e4c000e00e800000178009e407800e0292000a8
:100e5c00164107000080fa00000006001600fa0098
:100e6c000040eb00004f7800006081008071890029
:100e7c001e4078008080fb0010e3220010407800b8
:100e8c008100e80000f778001e4fe8001e40780053
:100e9c008080fb0000e32200104078008100e80015
:100eac0000f778001e4fe800106081008071890007
:100ebc001e4078008080fb0010e322001040780078
:100ecc008100e80000f778001e4fe8001e40780013
:100edc008080fb0000e32200104078008100e800d5
:100eec0000f778001e4fe8002060810080718900b7
:100efc001e4078008080fb0010e322001040780038
:100f0c008100e80000f778001e4fe8001e407800d2
:100f1c008080fb0000e32200104078008100e80094
:100f2c0000f778001e4fe800306081008071890066
:100f3c001e4078008080fb0010e3220010407800f7
:100f4c008100e80000f778001e4fe8001e40780092
:100f5c008080fb0000e32200104078008100e80054
:100f6c0000f778001e4fe800406081008071890016
:100f7c001e4078008080fb0010e3220010407800b7
:100f8c008100e80000f778001e4fe8001e40780052
:100f9c008080fb0000e32200104078008100e80014
:100fac0000f778001e4fe8005060810080718900c6
:100fbc001e4078008080fb0010e322001040780077
:100fcc008100e80000f778001e4fe8001e40780012
:100fdc008080fb0000e32200104078008100e800d4
:100fec0000f778001e4fe800606081008071890076
:100ffc001e4078008080fb0010e322001040780037
:10100c008100e80000f778001e4fe8001e407800d1
:10101c008080fb0000e32200104078008100e80093
:10102c0000f778001e4fe8000e00e8000001780081
:10103c009e407800e00f20009c4007000080fa00e2
:10104c00000006001600fa000040eb00004f78008c
:10105c00a0708100b17081004061890051618900ec
:10106c001e4078008080fb00b0c222001040780047
:10107c008100e80000f778001e4fe8001e40780061
:10108c008080fb00a0c22200104078008100e800a4
:10109c0000f778001e4fe8001e4078008080fb00af
:1010ac0090c22200104078008100e80000f7780020
:1010bc001e4fe8001e4078008080fb0080c222009a
:1010cc00104078008100e80000f778001e4fe8001f
:1010dc0090708100010020004061890051618900fd
:1010ec001e4078008080fb00b0c2220010407800c7
:1010fc008100e80000f778001e4fe8001e407800e1
:10110c008080fb00a0c22200104078008100e80023
:10111c0000f778001e4fe8001e4078008080fb002e
:10112c0090c22200104078008100e80000f778009f
:10113c001e4fe8001e4078008080fb0080c2220019
:10114c00104078008100e80000f778001e4fe8009e
:10115c000e00e800000178009e407800700f20001f
:10116c00814007000080fa00000006001600fa001b
:10117c000040eb00004f7800a06e8100b16e810042
:10118c0040618900516189001e4078008080fb001d
:10119c00b0c22200104078008100e80000f778000f
:1011ac001e4fe8001e4078008080fb00a0c2220089
:1011bc00104078008100e80000f778001e4fe8002e
:1011cc001e4078008080fb0090c222001040780006
:1011dc008100e80000f778001e4fe8001e40780000
:1011ec008080fb0080c22200104078008100e80063
:1011fc0000f778001e4fe800906e8100010020007f
:10120c0040618900516189001e4078008080fb009c
:10121c00b0c22200104078008100e80000f778008e
:10122c001e4fe8001e4078008080fb00a0c2220008
:10123c00104078008100e80000f778001e4fe800ad
:10124c001e4078008080fb0090c222001040780085
:10125c008100e80000f778001e4fe8001e4078007f
:10126c008080fb0080c22200104078008100e800e2
:10127c0000f778001e4fe8000e00e800000178002f
:10128c009e407800202b2000374007000080fa0099
:10129c00000006001600fa000040eb00004f78003a
:1012ac0040268100512681004061890051618900ee
:1012bc001e4078008080fb00b0c2220010407800f5
:1012cc008100e80000f778001e4fe8001e4078000f
:1012dc008080fb00a0c22200104078008100e80052
:1012ec0000f778001e4fe8001e4078008080fb005d
:1012fc0090c22200104078008100e80000f77800ce
:10130c001e4fe8001e4078008080fb0080c2220047
:10131c00104078008100e80000f778001e4fe800cc
:10132c00602681007126810040618900516189002d
:10133c001e4078008080fb00b0c222001040780074
:10134c008100e80000f778001e4fe8001e4078008e
:10135c008080fb00a0c22200104078008100e800d1
:10136c0000f778001e4fe8001e4078008080fb00dc
:10137c0090c22200104078008100e80000f778004d
:10138c001e4fe8001e4078008080fb0080c22200c7
:10139c00104078008100e80000f778001e4fe8004c
:1013ac000e00e800000178009e4078002007200025
:1013bc00ed3f07000080fa00000006002600fa004e
:1013cc000040eb00004f780080258100807189007f
:1013dc001e4078008080fb0010e322001040780053
:1013ec008100e80000f778001e4fe8001e407800ee
:1013fc008080fb0000e32200104078008100e800b0
:10140c0000f778001e4fe80090258100807189005c
:10141c001e4078008080fb0010e322001040780012
:10142c008100e80000f778001e4fe8001e407800ad
:10143c008080fb0000e32200104078008100e8006f
:10144c0000f778001e4fe800a0258100807189000c
:10145c001e4078008080fb0010e3220010407800d2
:10146c008100e80000f778001e4fe8001e4078006d
:10147c008080fb0000e32200104078008100e8002f
:10148c0000f778001e4fe800b025810080718900bc
:10149c001e4078008080fb0010e322001040780092
:1014ac008100e80000f778001e4fe8001e4078002d
:1014bc008080fb0000e32200104078008100e800ef
:1014cc0000f778001e4fe80010268100807189001b
:1014dc001e4078008080fb0010e322001040780052
:1014ec008100e80000f778001e4fe8001e407800ed
:1014fc008080fb0000e32200104078008100e800af
:10150c0000f778001e4fe800604c22001040780075
:10151c000080fb00807189001e4078008080fb00f9
:10152c0010e32200104078008100e80000f77800fa
:10153c001e4fe8001e4078008080fb0000e3220074
:10154c00104078008100e80000f778001e4fe8009a
:10155c00f0258100807189001e4078008080fb009e
:10156c0010e32200104078008100e80000f77800ba
:10157c001e4fe8001e4078008080fb0000e3220034
:10158c00104078008100e80000f778001e4fe8005a
:10159c00e0258100807189001e4078008080fb006e
:1015ac0010e32200104078008100e80000f778007a
:1015bc001e4fe8001e4078008080fb0000e32200f4
:1015cc00104078008100e80000f778001e4fe8001a
:1015dc0000268100807189001e4078008080fb000d
:1015ec0010e32200104078008100e80000f778003a
:1015fc001e4fe8001e4078008080fb0000e32200b4
:10160c00104078008100e80000f778001e4fe800d9
:10161c00704c2200104078000080fb008071890023
:10162c001e4078008080fb0010e322001040780000
:10163c008100e80000f778001e4fe8001e4078009b
:10164c008080fb0000e32200104078008100e8005d
:10165c0000f778001e4fe800004d22001040780083
:10166c000080fb00807189001e4078008080fb00a8
:10167c0010e32200104078008100e80000f77800a9
:10168c001e4fe8001e4078008080fb0000e3220023
:10169c00104078008100e80000f778001e4fe80049
:1016ac00c0258100807189001e4078008080fb007d
:1016bc0010e32200104078008100e80000f7780069
:1016cc001e4fe8001e4078008080fb0000e32200e3
:1016dc00104078008100e80000f778001e4fe80009
:1016ec0020268100807189001e4078008080fb00dc
:1016fc0010e32200104078008100e80000f7780029
:10170c001e4fe8001e4078008080fb0000e32200a2
:10171c00104078008100e80000f778001e4fe800c8
:10172c00d0258100807189001e4078008080fb00ec
:10173c0010e32200104078008100e80000f77800e8
:10174c001e4fe8001e4078008080fb0000e3220062
:10175c00104078008100e80000f778001e4fe80088
:10176c000e00e800000178009e4078004006200042
:10177c00ce3e0700c7fe07000080fa0000000600fe
:10178c002600fa000040eb00004f78009026810004
:10179c00807189001e4078008080fb0010e32200dd
:1017ac00104078008100e80000f778001e4fe80038
:1017bc001e4078008080fb0000e32200104078007f
:1017cc008100e80000f778001e4fe800a026810099
:1017dc00807189001e4078008080fb0010e322009d
:1017ec00104078008100e80000f778001e4fe800f8
:1017fc001e4078008080fb0000e32200104078003f
:10180c008100e80000f778001e4fe800b026810048
:10181c00807189001e4078008080fb0010e322005c
:10182c00104078008100e80000f778001e4fe800b7
:10183c001e4078008080fb0000e3220010407800fe
:10184c008100e80000f778001e4fe800e0268100d8
:10185c00807189001e4078008080fb0010e322001c
:10186c00104078008100e80000f778001e4fe80077
:10187c001e4078008080fb0000e3220010407800be
:10188c008100e80000f778001e4fe800f026810088
:10189c00807189001e4078008080fb0010e32200dc
:1018ac00104078008100e80000f778001e4fe80037
:1018bc001e4078008080fb0000e32200104078007e
:1018cc008100e80000f778001e4fe8000027810037
:1018dc00807189001e4078008080fb0010e322009c
:1018ec00104078008100e80000f778001e4fe800f7
:1018fc001e4078008080fb0000e32200104078003e
:10190c008100e80000f778001e4fe800c026810037
:10191c00807189001e4078008080fb0010e322005b
:10192c00104078008100e80000f778001e4fe800b6
:10193c001e4078008080fb0000e3220010407800fd
:10194c008100e80000f778001e4fe800d0268100e7
:10195c00807189001e4078008080fb0010e322001b
:10196c00104078008100e80000f778001e4fe80076
:10197c001e4078008080fb0000e3220010407800bd
:10198c008100e80000f778001e4fe8000e00e80028
:10199c00000178009e40780060072000433e07005d
:1019ac000080fa00000006003400fa000040eb0052
:1019bc00004f780010278100807189001e4078004c
:1019cc008080fb0010e32200104078008100e800ca
:1019dc0000f778001e4fe8001e4078008080fb0066
:1019ec0000e32200104078008100e80000f7780046
:1019fc001e4fe80020278100807189001e4078006e
:101a0c008080fb0010e32200104078008100e80089
:101a1c0000f778001e4fe8001e4078008080fb0025
:101a2c0000e32200104078008100e80000f7780005
:101a3c001e4fe80030278100807189001e4078001d
:101a4c008080fb0010e32200104078008100e80049
:101a5c0000f778001e4fe8001e4078008080fb00e5
:101a6c0000e32200104078008100e80000f77800c5
:101a7c001e4fe80040278100807189001e407800cd
:101a8c008080fb0010e32200104078008100e80009
:101a9c0000f778001e4fe8001e4078008080fb00a5
:101aac0000e32200104078008100e80000f7780085
:101abc001e4fe80050278100807189001e4078007d
:101acc008080fb0010e32200104078008100e800c9
:101adc0000f778001e4fe8001e4078008080fb0065
:101aec0000e32200104078008100e80000f7780045
:101afc001e4fe80060278100807189001e4078002d
:101b0c008080fb0010e32200104078008100e80088
:101b1c0000f778001e4fe8001e4078008080fb0024
:101b2c0000e32200104078008100e80000f7780004
:101b3c001e4fe80070278100807189001e407800dc
:101b4c008080fb0010e32200104078008100e80048
:101b5c0000f778001e4fe8001e4078008080fb00e4
:101b6c0000e32200104078008100e80000f77800c4
:101b7c001e4fe80000288100807189001e4078000b
:101b8c008080fb0010e32200104078008100e80008
:101b9c0000f778001e4fe8001e4078008080fb00a4
:101bac0000e32200104078008100e80000f7780084
:101bbc001e4fe800a0278100807189001e4078002c
:101bcc008080fb0010e32200104078008100e800c8
:101bdc0000f778001e4fe8001e4078008080fb0064
:101bec0000e32200104078008100e80000f7780044
:101bfc001e4fe80030288100807189001e4078005b
:101c0c008080fb0010e32200104078008100e80087
:101c1c0000f778001e4fe8001e4078008080fb0023
:101c2c0000e32200104078008100e80000f7780003
:101c3c001e4fe800b0278100c1278100000078000a
:101c4c00807189001e4078008080fb0010e3220028
:101c5c00104078008100e80000f778001e4fe80083
:101c6c001e4078008080fb0000e3220010407800ca
:101c7c008100e80000f778001e4fe800d0278100b3
:101c8c00807189001e4078008080fb0010e32200e8
:101c9c00104078008100e80000f778001e4fe80043
:101cac001e4078008080fb0000e32200104078008a
:101cbc008100e80000f778001e4fe800e027810063
:101ccc00807189001e4078008080fb0010e32200a8
:101cdc00104078008100e80000f778001e4fe80003
:101cec001e4078008080fb0000e32200104078004a
:101cfc008100e80000f778001e4fe8009027810073
:101d0c00807189001e4078008080fb0010e3220067
:101d1c00104078008100e80000f778001e4fe800c2
:101d2c001e4078008080fb0000e322001040780009
:101d3c008100e80000f778001e4fe8008027810042
:101d4c00807189001e4078008080fb0010e3220027
:101d5c00104078008100e80000f778001e4fe80082
:101d6c001e4078008080fb0000e3220010407800c9
:101d7c008100e80000f778001e4fe8001028810071
:101d8c00807189001e4078008080fb0010e32200e7
:101d9c00104078008100e80000f778001e4fe80042
:101dac001e4078008080fb0000e322001040780089
:101dbc008100e80000f778001e4fe8002028810021
:101dcc00807189001e4078008080fb0010e32200a7
:101ddc00104078008100e80000f778001e4fe80002
:101dec001e4078008080fb0000e322001040780049
:101dfc008100e80000f778001e4fe800f027810012
:101e0c00807189001e4078008080fb0010e3220066
:101e1c00104078008100e80000f778001e4fe800c1
:101e2c001e4078008080fb0000e322001040780008
:101e3c008100e80000f778001e4fe8004028810080
:101e4c00807189001e4078008080fb0010e3220026
:101e5c00104078008100e80000f778001e4fe80081
:101e6c001e4078008080fb0000e3220010407800c8
:101e7c008100e80000f778001e4fe8000e00e80033
:101e8c00000178009e407800e0072000073d070025
:101e9c000080fa00000006002000fa000040eb0071
:101eac00004f780050288100807189001e40780016
:101ebc008080fb0010e32200104078008100e800d5
:101ecc0000f778001e4fe8001e4078008080fb0071
:101edc0000e32200104078008100e80000f7780051
:101eec001e4fe80060288100807189001e40780038
:101efc008080fb0010e32200104078008100e80095
:101f0c0000f778001e4fe8001e4078008080fb0030
:101f1c0000e32200104078008100e80000f7780010
:101f2c001e4fe80070288100807189001e407800e7
:101f3c008080fb0010e32200104078008100e80054
:101f4c0000f778001e4fe8001e4078008080fb00f0
:101f5c0000e32200104078008100e80000f77800d0
:101f6c001e4fe80090288100807189001e40780087
:101f7c008080fb0010e32200104078008100e80014
:101f8c0000f778001e4fe8001e4078008080fb00b0
:101f9c0000e32200104078008100e80000f7780090
:101fac001e4fe800a0288100807189001e40780037
:101fbc008080fb0010e32200104078008100e800d4
:101fcc0000f778001e4fe8001e4078008080fb0070
:101fdc0000e32200104078008100e80000f7780050
:101fec001e4fe800b0288100807189001e407800e7
:101ffc008080fb0010e32200104078008100e80094
:10200c0000f778001e4fe8001e4078008080fb002f
:10201c0000e32200104078008100e80000f778000f
:10202c001e4fe80080288100807189001e407800d6
:10203c008080fb0010e32200104078008100e80053
:10204c0000f778001e4fe8001e4078008080fb00ef
:10205c0000e32200104078008100e80000f77800cf
:10206c001e4fe800c0288100807189001e40780056
:10207c008080fb0010e32200104078008100e80013
:10208c0000f778001e4fe8001e4078008080fb00af
:10209c0000e32200104078008100e80000f778008f
:1020ac001e4fe800d0288100807189001e40780006
:1020bc008080fb0010e32200104078008100e800d3
:1020cc0000f778001e4fe8001e4078008080fb006f
:1020dc0000e32200104078008100e80000f778004f
:1020ec001e4fe8000e00e800000178009e407800ca
:1020fc00100920006d3c07000080fa00000006006b
:10210c002000fa000040eb00004f7800b02981005d
:10211c00c129810040618900516189001e4078000d
:10212c008080fb00b0c22200104078008100e800e3
:10213c0000f778001e4fe8001e4078008080fb00fe
:10214c00a0c22200104078008100e80000f778005f
:10215c001e4fe8001e4078008080fb0090c22200d9
:10216c00104078008100e80000f778001e4fe8006e
:10217c001e4078008080fb0080c222001040780056
:10218c008100e80000f778001e4fe800d02981009c
:10219c00e129810040618900516189001e4078006d
:1021ac008080fb00b0c22200104078008100e80063
:1021bc0000f778001e4fe8001e4078008080fb007e
:1021cc00a0c22200104078008100e80000f77800df
:1021dc001e4fe8001e4078008080fb0090c2220059
:1021ec00104078008100e80000f778001e4fe800ee
:1021fc001e4078008080fb0080c2220010407800d6
:10220c008100e80000f778001e4fe800f0298100fb
:10221c00012a810040618900516189001e407800cb
:10222c008080fb00b0c22200104078008100e800e2
:10223c0000f778001e4fe8001e4078008080fb00fd
:10224c00a0c22200104078008100e80000f778005e
:10225c001e4fe8001e4078008080fb0090c22200d8
:10226c00104078008100e80000f778001e4fe8006d
:10227c001e4078008080fb0080c222001040780055
:10228c008100e80000f778001e4fe8000e00e8001f
:10229c00000178009e407800b00a2000323c070014
:1022ac000080fa00000006003000fa000040eb004d
:1022bc00004f780010298100807189001e40780041
:1022cc008080fb0010e32200104078008100e800c1
:1022dc0000f778001e4fe8001e4078008080fb005d
:1022ec0000e32200104078008100e80000f778003d
:1022fc001e4fe80020298100807189001e40780063
:10230c008080fb0010e32200104078008100e80080
:10231c0000f778001e4fe8001e4078008080fb001c
:10232c0000e32200104078008100e80000f77800fc
:10233c001e4fe800a0298100807189001e407800a2
:10234c008080fb0010e32200104078008100e80040
:10235c0000f778001e4fe8001e4078008080fb00dc
:10236c0000e32200104078008100e80000f77800bc
:10237c001e4fe80030298100807189001e407800d2
:10238c008080fb0010e32200104078008100e80000
:10239c0000f778001e4fe8001e4078008080fb009c
:1023ac0000e32200104078008100e80000f778007c
:1023bc001e4fe80070298100807189001e40780052
:1023cc008080fb0010e32200104078008100e800c0
:1023dc0000f778001e4fe8001e4078008080fb005c
:1023ec0000e32200104078008100e80000f778003c
:1023fc001e4fe80080298100807189001e40780002
:10240c008080fb0010e32200104078008100e8007f
:10241c0000f778001e4fe8001e4078008080fb001b
:10242c0000e32200104078008100e80000f77800fb
:10243c001e4fe80040298100807189001e40780001
:10244c008080fb0010e32200104078008100e8003f
:10245c0000f778001e4fe8001e4078008080fb00db
:10246c0000e32200104078008100e80000f77800bb
:10247c001e4fe80050298100807189001e407800b1
:10248c008080fb0010e32200104078008100e800ff
:10249c0000f778001e4fe8001e4078008080fb009b
:1024ac0000e32200104078008100e80000f778007b
:1024bc001e4fe80090298100807189001e40780031
:1024cc008080fb0010e32200104078008100e800bf
:1024dc0000f778001e4fe8001e4078008080fb005b
:1024ec0000e32200104078008100e80000f778003b
:1024fc001e4fe80060298100807189001e40780021
:10250c008080fb0010e32200104078008100e8007e
:10251c0000f778001e4fe8001e4078008080fb001a
:10252c0000e32200104078008100e80000f77800fa
:10253c001e4fe800102a8100807189001e4078002f
:10254c008080fb0010e32200104078008100e8003e
:10255c0000f778001e4fe8001e4078008080fb00da
:10256c0000e32200104078008100e80000f77800ba
:10257c001e4fe800202a8100807189001e407800df
:10258c008080fb0010e32200104078008100e800fe
:10259c0000f778001e4fe8001e4078008080fb009a
:1025ac0000e32200104078008100e80000f778007a
:1025bc001e4fe8000e00e800000178009e407800f5
:1025cc00a0092000393b0700cdfe07000080fa006f
:1025dc00000006001600fa000040eb00004f7800e7
:1025ec00102b8100807189001e4078008080fb00d8
:1025fc0010e32200104078008100e80000f778001a
:10260c001e4fe8001e4078008080fb0000e3220093
:10261c00104078008100e80000f778001e4fe800b9
:10262c00202b8100807189001e4078008080fb0087
:10263c0010e32200104078008100e80000f77800d9
:10264c001e4fe8001e4078008080fb0000e3220053
:10265c00104078008100e80000f778001e4fe80079
:10266c00f02a8100807189001e4078008080fb0078
:10267c0010e32200104078008100e80000f7780099
:10268c001e4fe8001e4078008080fb0000e3220013
:10269c00104078008100e80000f778001e4fe80039
:1026ac00002b8100807189001e4078008080fb0027
:1026bc0010e32200104078008100e80000f7780059
:1026cc001e4fe8001e4078008080fb0000e32200d3
:1026dc00104078008100e80000f778001e4fe800f9
:1026ec000e00e800000178009e407800000b2000ee
:1026fc00ee3a07000080fa00000006003000fa00f5
:10270c000040eb00004f7800302a81008071890076
:10271c001e4078008080fb0010e3220010407800ff
:10272c008100e80000f778001e4fe8001e4078009a
:10273c008080fb0000e32200104078008100e8005c
:10274c0000f778001e4fe800402a81008071890054
:10275c001e4078008080fb0010e3220010407800bf
:10276c008100e80000f778001e4fe8001e4078005a
:10277c008080fb0000e32200104078008100e8001c
:10278c0000f778001e4fe800502a81008071890004
:10279c001e4078008080fb0010e32200104078007f
:1027ac008100e80000f778001e4fe8001e4078001a
:1027bc008080fb0000e32200104078008100e800dc
:1027cc0000f778001e4fe800602a810080718900b4
:1027dc001e4078008080fb0010e32200104078003f
:1027ec008100e80000f778001e4fe8001e407800da
:1027fc008080fb0000e32200104078008100e8009c
:10280c0000f778001e4fe800702a81008071890063
:10281c001e4078008080fb0010e3220010407800fe
:10282c008100e80000f778001e4fe8001e40780099
:10283c008080fb0000e32200104078008100e8005b
:10284c0000f778001e4fe800802a81008071890013
:10285c001e4078008080fb0010e3220010407800be
:10286c008100e80000f778001e4fe8001e40780059
:10287c008080fb0000e32200104078008100e8001b
:10288c0000f778001e4fe800902a810080718900c3
:10289c001e4078008080fb0010e32200104078007e
:1028ac008100e80000f778001e4fe8001e40780019
:1028bc008080fb0000e32200104078008100e800db
:1028cc0000f778001e4fe800a02a81008071890073
:1028dc001e4078008080fb0010e32200104078003e
:1028ec008100e80000f778001e4fe8001e407800d9
:1028fc008080fb0000e32200104078008100e8009b
:10290c0000f778001e4fe800b02a81008071890022
:10291c001e4078008080fb0010e3220010407800fd
:10292c008100e80000f778001e4fe8001e40780098
:10293c008080fb0000e32200104078008100e8005a
:10294c0000f778001e4fe800c02a810080718900d2
:10295c001e4078008080fb0010e3220010407800bd
:10296c008100e80000f778001e4fe8001e40780058
:10297c008080fb0000e32200104078008100e8001a
:10298c0000f778001e4fe8000e00e8000001780008
:10299c009e407800a0282000443a07000080fa00ee
:1029ac00000006002000fa000040eb00004f780009
:1029bc00302b8100807189001e4078008080fb00e4
:1029cc0010e32200104078008100e80000f7780046
:1029dc001e4fe8001e4078008080fb0000e32200c0
:1029ec00104078008100e80000f778001e4fe800e6
:1029fc00402b8100807189001e4078008080fb0094
:102a0c0010e32200104078008100e80000f7780005
:102a1c001e4fe8001e4078008080fb0000e322007f
:102a2c00104078008100e80000f778001e4fe800a5
:102a3c00502b8100807189001e4078008080fb0043
:102a4c0010e32200104078008100e80000f77800c5
:102a5c001e4fe8001e4078008080fb0000e322003f
:102a6c00104078008100e80000f778001e4fe80065
:102a7c00602b8100807189001e4078008080fb00f3
:102a8c0010e32200104078008100e80000f7780085
:102a9c001e4fe8001e4078008080fb0000e32200ff
:102aac00104078008100e80000f778001e4fe80025
:102abc00702b8100807189001e4078008080fb00a3
:102acc0010e32200104078008100e80000f7780045
:102adc001e4fe8001e4078008080fb0000e32200bf
:102aec00104078008100e80000f778001e4fe800e5
:102afc00802b8100807189001e4078008080fb0053
:102b0c0010e32200104078008100e80000f7780004
:102b1c001e4fe8001e4078008080fb0000e322007e
:102b2c00104078008100e80000f778001e4fe800a4
:102b3c00902b8100807189001e4078008080fb0002
:102b4c0010e32200104078008100e80000f77800c4
:102b5c001e4fe8001e4078008080fb0000e322003e
:102b6c00104078008100e80000f778001e4fe80064
:102b7c00a02b8100807189001e4078008080fb00b2
:102b8c0010e32200104078008100e80000f7780084
:102b9c001e4fe8001e4078008080fb0000e32200fe
:102bac00104078008100e80000f778001e4fe80024
:102bbc00b02b8100807189001e4078008080fb0062
:102bcc0010e32200104078008100e80000f7780044
:102bdc001e4fe8001e4078008080fb0000e32200be
:102bec00104078008100e80000f778001e4fe800e4
:102bfc00c02b8100807189001e4078008080fb0012
:102c0c0010e32200104078008100e80000f7780003
:102c1c001e4fe8001e4078008080fb0000e322007d
:102c2c00104078008100e80000f778001e4fe800a3
:102c3c000e00e800000178009e4078003022200051
:102c4c009a3907000080fa00000006001600fa000e
:102c5c000040eb00004f7800d02b81008071890080
:102c6c001e4078008080fb0010e3220010407800aa
:102c7c008100e80000f778001e4fe8001e40780045
:102c8c008080fb0000e32200104078008100e80007
:102c9c0000f778001e4fe800e02b8100807189005e
:102cac001e4078008080fb0010e32200104078006a
:102cbc008100e80000f778001e4fe8001e40780005
:102ccc008080fb0000e32200104078008100e800c7
:102cdc0000f778001e4fe8000e00e80000017800b5
:102cec009e40780060272000703907000080fa00b1
:102cfc00000006002000fa000040eb00004f7800b6
:102d0c00f02b8100807189001e4078008080fb00d0
:102d1c0010e32200104078008100e80000f77800f2
:102d2c001e4fe8001e4078008080fb0000e322006c
:102d3c00104078008100e80000f778001e4fe80092
:102d4c00002c8100807189001e4078008080fb007f
:102d5c0010e32200104078008100e80000f77800b2
:102d6c001e4fe8001e4078008080fb0000e322002c
:102d7c00104078008100e80000f778001e4fe80052
:102d8c00102c8100807189001e4078008080fb002f
:102d9c0010e32200104078008100e80000f7780072
:102dac001e4fe8001e4078008080fb0000e32200ec
:102dbc00104078008100e80000f778001e4fe80012
:102dcc00202c8100807189001e4078008080fb00df
:102ddc0010e32200104078008100e80000f7780032
:102dec001e4fe8001e4078008080fb0000e32200ac
:102dfc00104078008100e80000f778001e4fe800d2
:102e0c00302c8100807189001e4078008080fb008e
:102e1c0010e32200104078008100e80000f77800f1
:102e2c001e4fe8001e4078008080fb0000e322006b
:102e3c00104078008100e80000f778001e4fe80091
:102e4c00402c8100807189001e4078008080fb003e
:102e5c0010e32200104078008100e80000f77800b1
:102e6c001e4fe8001e4078008080fb0000e322002b
:102e7c00104078008100e80000f778001e4fe80051
:102e8c00502c8100807189001e4078008080fb00ee
:102e9c0010e32200104078008100e80000f7780071
:102eac001e4fe8001e4078008080fb0000e32200eb
:102ebc00104078008100e80000f778001e4fe80011
:102ecc00602c8100807189001e4078008080fb009e
:102edc0010e32200104078008100e80000f7780031
:102eec001e4fe8001e4078008080fb0000e32200ab
:102efc00104078008100e80000f778001e4fe800d1
:102f0c000e00e800000178009e4078008027200029
:102f1c00e63807000080fa00000006002000fa00e6
:102f2c000040eb00004f7800702c8100807189000c
:102f3c001e4078008080fb0010e3220010407800d7
:102f4c008100e80000f778001e4fe8001e40780072
:102f5c008080fb0000e32200104078008100e80034
:102f6c0000f778001e4fe800802c810080718900ea
:102f7c001e4078008080fb0010e322001040780097
:102f8c008100e80000f778001e4fe8001e40780032
:102f9c008080fb0000e32200104078008100e800f4
:102fac0000f778001e4fe800902c8100807189009a
:102fbc001e4078008080fb0010e322001040780057
:102fcc008100e80000f778001e4fe8001e407800f2
:102fdc008080fb0000e32200104078008100e800b4
:102fec0000f778001e4fe800a02c8100807189004a
:102ffc001e4078008080fb0010e322001040780017
:10300c008100e80000f778001e4fe8001e407800b1
:10301c008080fb0000e32200104078008100e80073
:10302c0000f778001e4fe800b02c810080718900f9
:10303c001e4078008080fb0010e3220010407800d6
:10304c008100e80000f778001e4fe8001e40780071
:10305c008080fb0000e32200104078008100e80033
:10306c0000f778001e4fe800c02c810080718900a9
:10307c001e4078008080fb0010e322001040780096
:10308c008100e80000f778001e4fe8001e40780031
:10309c008080fb0000e32200104078008100e800f3
:1030ac0000f778001e4fe800d02c81008071890059
:1030bc001e4078008080fb0010e322001040780056
:1030cc008100e80000f778001e4fe8001e407800f1
:1030dc008080fb0000e32200104078008100e800b3
:1030ec0000f778001e4fe800e02c81008071890009
:1030fc001e4078008080fb0010e322001040780016
:10310c008100e80000f778001e4fe8001e407800b0
:10311c008080fb0000e32200104078008100e80072
:10312c0000f778001e4fe8000e00e8000001780060
:10313c009e407800002320005c3807000080fa00d5
:10314c00000006002000fa000040eb00004f780061
:10315c00f02c8100807189001e4078008080fb007b
:10316c0010e32200104078008100e80000f778009e
:10317c001e4fe8001e4078008080fb0000e3220018
:10318c00104078008100e80000f778001e4fe8003e
:10319c00002d8100807189001e4078008080fb002a
:1031ac0010e32200104078008100e80000f778005e
:1031bc001e4fe8001e4078008080fb0000e32200d8
:1031cc00104078008100e80000f778001e4fe800fe
:1031dc00102d8100807189001e4078008080fb00da
:1031ec0010e32200104078008100e80000f778001e
:1031fc001e4fe8001e4078008080fb0000e3220098
:10320c00104078008100e80000f778001e4fe800bd
:10321c00202d8100807189001e4078008080fb0089
:10322c0010e32200104078008100e80000f77800dd
:10323c001e4fe8001e4078008080fb0000e3220057
:10324c00104078008100e80000f778001e4fe8007d
:10325c00302d8100807189001e4078008080fb0039
:10326c0010e32200104078008100e80000f778009d
:10327c001e4fe8001e4078008080fb0000e3220017
:10328c00104078008100e80000f778001e4fe8003d
:10329c00402d8100807189001e4078008080fb00e9
:1032ac0010e32200104078008100e80000f778005d
:1032bc001e4fe8001e4078008080fb0000e32200d7
:1032cc00104078008100e80000f778001e4fe800fd
:1032dc00502d8100807189001e4078008080fb0099
:1032ec0010e32200104078008100e80000f778001d
:1032fc001e4fe8001e4078008080fb0000e3220097
:10330c00104078008100e80000f778001e4fe800bc
:10331c00602d8100807189001e4078008080fb0048
:10332c0010e32200104078008100e80000f77800dc
:10333c001e4fe8001e4078008080fb0000e3220056
:10334c00104078008100e80000f778001e4fe8007c
:10335c00702d8100807189001e4078008080fb00f8
:10336c0010e32200104078008100e80000f778009c
:10337c001e4fe8001e4078008080fb0000e3220016
:10338c00104078008100e80000f778001e4fe8003c
:10339c00802d8100807189001e4078008080fb00a8
:1033ac0010e32200104078008100e80000f778005c
:1033bc001e4fe8001e4078008080fb0000e32200d6
:1033cc00104078008100e80000f778001e4fe800fc
:1033dc000e00e800000178009e4078008023200059
:1033ec00b23707000080fa00000006002000fa0047
:1033fc000040eb00004f7800902d81008071890017
:10340c001e4078008080fb0010e322001040780002
:10341c008100e80000f778001e4fe8001e4078009d
:10342c008080fb0000e32200104078008100e8005f
:10343c0000f778001e4fe800a02d810080718900f4
:10344c001e4078008080fb0010e3220010407800c2
:10345c008100e80000f778001e4fe8001e4078005d
:10346c008080fb0000e32200104078008100e8001f
:10347c0000f778001e4fe800b02d810080718900a4
:10348c001e4078008080fb0010e322001040780082
:10349c008100e80000f778001e4fe8001e4078001d
:1034ac008080fb0000e32200104078008100e800df
:1034bc0000f778001e4fe800c02d81008071890054
:1034cc001e4078008080fb0010e322001040780042
:1034dc008100e80000f778001e4fe8001e407800dd
:1034ec008080fb0000e32200104078008100e8009f
:1034fc0000f778001e4fe800d02d81008071890004
:10350c001e4078008080fb0010e322001040780001
:10351c008100e80000f778001e4fe8001e4078009c
:10352c008080fb0000e32200104078008100e8005e
:10353c0000f778001e4fe800e02d810080718900b3
:10354c001e4078008080fb0010e3220010407800c1
:10355c008100e80000f778001e4fe8001e4078005c
:10356c008080fb0000e32200104078008100e8001e
:10357c0000f778001e4fe800f02d81008071890063
:10358c001e4078008080fb0010e322001040780081
:10359c008100e80000f778001e4fe8001e4078001c
:1035ac008080fb0000e32200104078008100e800de
:1035bc0000f778001e4fe800002e81008071890012
:1035cc001e4078008080fb0010e322001040780041
:1035dc008100e80000f778001e4fe8001e407800dc
:1035ec008080fb0000e32200104078008100e8009e
:1035fc0000f778001e4fe800102e810080718900c2
:10360c001e4078008080fb0010e322001040780000
:10361c008100e80000f778001e4fe8001e4078009b
:10362c008080fb0000e32200104078008100e8005d
:10363c0000f778001e4fe800202e81008071890071
:10364c001e4078008080fb0010e3220010407800c0
:10365c008100e80000f778001e4fe8001e4078005b
:10366c008080fb0000e32200104078008100e8001d
:10367c0000f778001e4fe8000e00e800000178000b
:10368c009e407800c0262000083707000080fa0012
:10369c00000006000000fa00c2fc07006bfd0700ea
:1036ac0094fd07001dfe0700a6fe07004fff070054
:1036bc000080fa00000006000000fa00e4f30700a6
:1036cc00ebf30700f2f3070003f407000af407001a
:1036dc0016f4070022f407000080fa000000060030
:1036ec000000fa002bf4070084f40700cdf4070067
:1036fc0036f507008ff50700d8f507000080fa00b3
:10370c00000006000000fa002cf707001cf8070068
:10371c00a5f80700e0f90700e3fa0700adfb070086
:10372c00f6fb0700e4ff0700edff0700d9ff0700d9
:10373c000080fa00000006000400fa00000f780078
:10374c0021479800324798009e007800600e2000b8
:10375c00808f50000e003a002e409000e14f500038
:10376c0007003a003e40900061e322008048780058
:10377c0060e32200104078008b4b070004003700f8
:10378c0061e322000040eb0080487800000000005c
:10379c000080fa00000006000e00fa00004f9800ae
:1037ac00114f980052079800630798005e00900034
:1037bc00ee009000e00f5000e08f5800050035003f
:1037cc0050002000010020002007980031079800cd
:1037dc0004003700b0ff2f00f1ff2f0020079800e6
:1037ec00310798000e4890000080fb00cf80de006f
:1037fc005200200003002000820f5000838f5800dd
:10380c0058033e000006010005003700b0003700e9
:10381c0041013700d001370056023700d202370081
:10382c001e4890000080fb00cf80de00520020007c
:10383c0003002000820f5000838f58003e033e008f
:10384c0000060100050037000b0037002700370089
:10385c0044003700610037007e0037005e009000a6
:10386c00ee009000a20020000300200047f30700a8
:10387c00008fbe00950037003e009000ea01b800b2
:10388c002e009000e000b80000014100ae00900056
:10389c00a00020000008b80001014100820078005f
:1038ac0020079800310798002007980031079800ee
:1038bc005e019000ee0190002e009000be00900082
:1038cc000200400083804800500798006107980070
:1038dc005e009000ee0090004206200003002000e5
:1038ec002af30700008fbe0078003700be0090005e
:1038fc00400620008009b8002e009000e000b800bf
:10390c0000014100ae009000400620000008b80005
:10391c0001014100820078002007980031079800cf
:10392c0020079800310798005e019000ee0190008e
:10393c002e009000be0090000200400083804800e2
:10394c0050079800610798005e009000ee00900010
:10395c00823e2000030020000cf30700008fbe0005
:10396c005a003700be009000803e20008009b8004d
:10397c002e009000e000b80000014100ae00900065
:10398c00803e20000008b800010141008200780050
:10399c0020079800310798002007980031079800fd
:1039ac005e019000ee0190002e009000be00900091
:1039bc00020040008380480050079800610798007f
:1039cc005e009000ee0090000271220003002000c7
:1039dc00eef20700008fbe003c003700be009000e6
:1039ec00007122008009b8002e009000e000b800a1
:1039fc0000014100ae009000007122000008b800e8
:103a0c0001014100820078002007980031079800de
:103a1c0020079800310798005e019000ee0190009d
:103a2c002e009000be0090000200400083804800f1
:103a3c0050079800610798005e009000ee0090001f
:103a4c00026a280013002000d0f20700008fbe008d
:103a5c001e003700be009000006a28008009b800e4
:103a6c002e009000e100b80000014100ae00900073
:103a7c00006a28000008b8000101410082007800ab
:103a8c00200798003107980020079800310798000c
:103a9c005e019000ee0190002e009000be009000a0
:103aac00020040008380480050079800610798008e
:103abc005e009000ee00900002242400f300200031
:103acc00b2f20700008fbe0000000000a502370014
:103adc001e4890000080fb00cf80de0052002000ca
:103aec0003002000820f5000838f580094023e0088
:103afc000006010005003700080037000e003700f3
:103b0c002a00370047003700640037005e00900041
:103b1c00ee009000008fbe007e0037005e0090002b
:103b2c00ee009000a20020000300200097f2070096
:103b3c00008fbe00770037003e009000ea01b8000d
:103b4c002e009000e000b80000014100ae00900093
:103b5c00a00020000008b80001014100820078009c
:103b6c00200798003107980020079800310798002b
:103b7c005e019000ee0190002e009000be009000bf
:103b8c0002004000838048005007980061079800ad
:103b9c005e009000ee009000420620000300200022
:103bac007af20700008fbe005a003700be0090006a
:103bbc00400620008009b8002e009000e000b800fc
:103bcc0000014100ae009000400620000008b80043
:103bdc00010141008200780020079800310798000d
:103bec0020079800310798005e019000ee019000cc
:103bfc002e009000be009000020040008380480020
:103c0c0050079800610798005e009000ee0090004d
:103c1c00823e2000030020005cf20700008fbe00f3
:103c2c003c003700be009000803e20008009b800a8
:103c3c002e009000e000b80000014100ae009000a2
:103c4c00803e20000008b80001014100820078008d
:103c5c00200798003107980020079800310798003a
:103c6c005e019000ee0190002e009000be009000ce
:103c7c0002004000838048005007980061079800bc
:103c8c005e009000ee009000027122000300200004
:103c9c003ef20700008fbe001e003700be009000f1
:103cac00007122008009b8002e009000e000b800de
:103cbc0000014100ae009000007122000008b80025
:103ccc00010141008200780020079800310798001c
:103cdc0020079800310798005e019000ee019000db
:103cec002e009000be00900002004000838048002f
:103cfc0050079800610798005e009000ee0090005d
:103d0c00026a28001300200020f20700008fbe007a
:103d1c0000000000130237001e4890000080fb00da
:103d2c00cf80de005200200003002000820f5000e4
:103d3c00838f580004023e00000601000500370086
:103d4c0011003700230037002900370045003700e9
:103d5c00620037006e009000ea01b8005e0090002f
:103d6c00e000b80000014100de009000a00020003f
:103d7c000008b8000101410082007800008fbe00ed
:103d8c00008fbe00730037005e009000ee009000c4
:103d9c00a200200003002000fcf10700008fbe00f1
:103dac001e009000ea01b8001e007800e000b80088
:103dbc00000141009e007800a00020000008b8001f
:103dcc000101410082007800008fbe00008fbe0010
:103ddc00600037005e009000ee009000a200200012
:103dec0003002000e9f10700008fbe0059003700e6
:103dfc003e009000ea01b8002e009000e000b800f0
:103e0c0000014100ae009000a00020000008b800a6
:103e1c0001014100820078002007980031079800ca
:103e2c0020079800310798005e019000ee01900089
:103e3c002e009000be0090000200400083804800dd
:103e4c0050079800610798005e009000ee0090000b
:103e5c004206200003002000ccf10700008fbe00ba
:103e6c003c003700be009000400620008009b800de
:103e7c002e009000e000b80000014100ae00900060
:103e8c00400620000008b8000101410082007800c3
:103e9c0020079800310798002007980031079800f8
:103eac005e019000ee0190002e009000be0090008c
:103ebc00020040008380480050079800610798007a
:103ecc005e009000ee009000823e20000300200077
:103edc00aef10700008fbe001e003700be00900040
:103eec00803e20008009b8002e009000e000b80051
:103efc0000014100ae009000803e20000008b80098
:103f0c0001014100820078002007980031079800d9
:103f1c0020079800310798005e019000ee01900098
:103f2c002e009000be0090000200400083804800ec
:103f3c0050079800610798005e009000ee0090001a
:103f4c00027122000300200090f10700008fbe00d8
:103f5c0000000000830137001e4890000080fb0029
:103f6c00cf80de005200200003002000820f5000a2
:103f7c00838f580076013e000006010005003700d3
:103f8c001200370025003700370037003d0037009e
:103f9c0059003700ee009000400620008009b80060
:103fac005e009000e000b80000014100de009000cf
:103fbc00400620000008b800010141008200780092
:103fcc00008fbe00008fbe00690037005e009000bd
:103fdc00ee009000a2002000030020006bf107000f
:103fec00008fbe009e009000400620008009b800a3
:103ffc001e007800e000b800000141009e0078002f
:10400c00400620000008b800010141008200780041
:10401c00008fbe00008fbe00550037005e00900080
:10402c00ee009000a20020000300200057f10700d2
:10403c00008fbe001e009000ea01b8001e00780040
:10404c00e000b800000141009e007800a0002000b4
:10405c000008b8000101410082007800008fbe000a
:10406c00008fbe00420037005e009000ee00900012
:10407c00a20020000300200044f10700008fbe00c6
:10408c003b0037003e009000ea01b8002e00900083
:10409c00e000b80000014100ae009000a00020003c
:1040ac000008b80001014100820078002007980048
:1040bc003107980020079800310798005e019000a6
:1040cc00ee0190002e009000be0090000200400017
:1040dc008380480050079800610798005e009000ac
:1040ec00ee009000420620000300200027f107009c
:1040fc00008fbe001e003700be009000400620005e
:10410c008009b8002e009000e000b80000014100ca
:10411c00ae009000400620000008b80001014100ec
:10412c00820078002007980031079800200798003b
:10413c00310798005e019000ee0190002e00900077
:10414c00be00900002004000838048005007980099
:10415c00610798005e009000ee009000823e200007
:10416c000300200009f10700008fbe0000000000d2
:10417c00fc0037001e4890000080fb00cf80de0062
:10418c005200200003002000820f5000838f580043
:10419c00f1003e0000060100050037001200370058
:1041ac0025003700380037004a0037005000370030
:1041bc00ee009000803e20008009b8005e00900068
:1041cc00e000b80000014100de009000803e2000bd
:1041dc000008b8000101410082007800008fbe0089
:1041ec00008fbe005f0037005e009000ee00900074
:1041fc00a200200003002000e4f00700008fbe00a6
:10420c009e009000803e20008009b8001e007800bf
:10421c00e000b800000141009e007800803e2000c4
:10422c000008b8000101410082007800008fbe0038
:10423c00008fbe004b0037005e009000ee00900037
:10424c00a200200003002000d0f00700008fbe0069
:10425c009e009000400620008009b8001e007800e7
:10426c00e000b800000141009e00780040062000ec
:10427c000008b8000101410082007800008fbe00e8
:10428c00008fbe00370037005e009000ee009000fb
:10429c00a200200003002000bcf00700008fbe002d
:1042ac001e009000ea01b8001e007800e000b80083
:1042bc00000141009e007800a00020000008b8001a
:1042cc000101410082007800008fbe00008fbe000b
:1042dc00240037005e009000ee009000a200200049
:1042ec0003002000a9f00700008fbe001d0037005e
:1042fc003e009000ea01b8002e009000e000b800eb
:10430c0000014100ae009000a00020000008b800a1
:10431c0001014100820078002007980031079800c5
:10432c0020079800310798005e019000ee01900084
:10433c002e009000be0090000200400083804800d8
:10434c0050079800610798005e009000ee00900006
:10435c0042062000030020008cf00700008fbe00f6
:10436c00000000007f0037001e4890000080fb001a
:10437c00cf80de005200200003002000820f50008e
:10438c00838f580076003e000006010005003700c0
:10439c001200370025003700380037004b0037007b
:1043ac005d003700ee009000007122008009b8001b
:1043bc005e009000e000b80000014100de009000bb
:1043cc00007122000008b800010141008200780051
:1043dc00008fbe00008fbe00560037005e009000bc
:1043ec00ee009000a20020000300200067f0070000
:1043fc00008fbe009e009000007122008009b80062
:10440c001e007800e000b800000141009e0078001a
:10441c00007122000008b800010141008200780000
:10442c00008fbe00008fbe00420037005e0090007f
:10443c00ee009000a20020000300200053f00700c3
:10444c00008fbe009e009000803e20008009b800c6
:10445c001e007800e000b800000141009e007800ca
:10446c00803e20000008b800010141008200780065
:10447c00008fbe00008fbe002e0037005e00900043
:10448c00ee009000a2002000030020003ff0070087
:10449c00008fbe009e009000400620008009b800ee
:1044ac001e007800e000b800000141009e0078007a
:1044bc00400620000008b80001014100820078008d
:1044cc00008fbe00008fbe001a0037005e00900007
:1044dc00ee009000a2002000030020002bf007004b
:1044ec00008fbe001e009000ea01b8001e0078008c
:1044fc00e000b800000141009e007800a000200000
:10450c000008b8000101410082007800008fbe0055
:10451c00008fbe00070037005e009000ee00900098
:10452c00a20020000300200018f00700008fbe003e
:10453c00000000000b0037000000000009003700ed
:10454c0000000000070037000000000005003700e5
:10455c0000000000030037000000000001003700dd
:10456c00000000001e00be000080fa0000000600e3
:10457c000600fa00004f78001207980023079800f5
:10458c0060e32200104078000000fb006101b900dc
:10459c000080eb008080eb0002004000838048002c
:1045ac00f200200003002000820f5000838f58007f
:1045bc0031003e00000601002700370026003700be
:1045cc0025003700240037000b003700120037009d
:1045dc0009003700180037001f003700160037009d
:1045ec00150037001c0037001b0037001a0037007d
:1045fc0019003700180037001e019000ae01900022
:10460c009e40780040c0b30063fc07001007980080
:10461c0021079800180037001e019000ae01900091
:10462c009e40780020c0b3005bfc07001007980088
:10463c0021079800100037001e019000ae01900079
:10464c009e40780010c0b30053fc07001007980080
:10465c0021079800080037001e019000ae01900061
:10466c009e4078000040eb004bfc070010079800c0
:10467c00210798000000000060e322001040780041
:10468c000000fb006101b9000080eb008080eb00b2
:10469c000200400083804800f2002000030020004c
:1046ac00820f5000838f58004b003e000006010023
:1046bc000f003700110037001300370015003700ca
:1046cc00170037001b0037001d0037002100370092
:1046dc002300370027003700290037002b00370054
:1046ec002d00370031003700350037003700370018
:1046fc001e00900080258900370037001e009000b6
:10470c0090258900340037001e009000a0258900f8
:10471c00310037001e009000b02589002e003700b4
:10472c001e009000ae0090004026890051268900a2
:10473c00290037001e009000d02589002600370084
:10474c001e009000ae009000602689007126890042
:10475c00210037001e009000102689001e00370033
:10476c001e00900000407800614c220080487800c8
:10477c00190037001e009000f02589001600370044
:10478c001e009000e0258900130037001e009000e9
:10479c0000268900100037001e00900000407800b1
:1047ac00714c2200804878000b0037001e009000ee
:1047bc0000407800014d2200804878000600370048
:1047cc001e00900020268900030037001e00900078
:1047dc00c02589000000000060e322001040780032
:1047ec000000fb000000e900ef0f500003003e004a
:1047fc00e30d0700f1f20700000000000080fa0052
:10480c00000006000600fa00004f7800120798001e
:10481c00230798001e019000ae0190009e40780086
:10482c000040eb00dcfb0700100798002107980004
:10483c0060e32200104078000000fb006101b90029
:10484c00f0fe2f00f1ff2f00020040008380480093
:10485c007200200003002000820f5000838f58004c
:10486c0021003e0000060100070037000900370058
:10487c000b0037000d0037000f0037001100370018
:10488c0013003700150037001e0090009026890099
:10489c00150037001e009000a0268900120037007a
:1048ac001e009000b02689000f0037001e009000fb
:1048bc00c02689000c0037001e009000d02689000d
:1048cc00090037001e009000e02689000600370022
:1048dc001e009000f0268900030037001e00900097
:1048ec00002789000000000060e3220010407800df
:1048fc000000fb0071005000e70f500003003e0069
:10490c00ac0d07009ef30700000000000080fa00c9
:10491c00000006000600fa00004f7800120798000d
:10492c002307980060e32200104078000000fb0091
:10493c006101b90080fe2f00f1ff2f000200400042
:10494c00838048003201200003002000820f5000b9
:10495c00838f580025003e00000601001b00370025
:10496c001a003700190037001800370017003700fd
:10497c001600370015003700140037000b00370005
:10498c001200370011003700100037000f003700fd
:10499c000e00370005003700040037000b0037000d
:1049ac000a00370009003700080037001e0190008c
:1049bc00ae0190009e40780010c0b30076fb07005b
:1049cc001007980021079800080037001e0190007e
:1049dc00ae0190009e4078000040eb006efb07009b
:1049ec0010079800210798000000000060e32200e7
:1049fc00104078000000fb006101b90070fe2f0030
:104a0c00f1ff2f00020040008380480022012000ab
:104a1c0003002000820f5000838f58004f003e008f
:104a2c000006010012003700140037001600370092
:104a3c00180037001a0037001c0037001e00370022
:104a4c0020003700240037002600370028003700ec
:104a5c002a0037002c0037002e00370030003700ba
:104a6c00320037003400370036003700380037008a
:104a7c001e00900010278900380037001e0090009f
:104a8c0020278900350037001e0090003027890050
:104a9c00320037001e009000402789002f0037009d
:104aac001e009000502789002c0037001e0090003b
:104abc0060278900290037001e00900070278900ac
:104acc00260037001e009000ae009000b027890031
:104adc00c1278900210037001e009000d0278900d3
:104aec001e0037001e009000e02789001b003700d5
:104afc001e009000f0278900180037001e0090005f
:104b0c0080278900150037001e009000902789002f
:104b1c00120037001e009000102889000f0037008b
:104b2c001e009000202889000c0037001e00900009
:104b3c0000288900090037001e009000a02789007a
:104b4c00060037001e009000302889000300370053
:104b5c001e009000402889000000000060e3220045
:104b6c00104078000000fb0078005000f30f50005c
:104b7c0003003e00360d07008bf307000000000019
:104b8c000080fa00000006000600fa00004f7800d2
:104b9c00120798002307980060e322001040780069
:104bac000000fb00c002b100e80f500019003e00ed
:104bbc00110020000008dd00811e20008100600033
:104bcc00e08f50000b003a0077006000e00f5000bf
:104bdc00100032001e019000ae0190009e40780043
:104bec000040eb00ecfa0700100798002107980032
:104bfc00080037001e019000ae0190009e40780026
:104c0c0010c0b300e4fa07001007980021079800c1
:104c1c000000000060e32200104078000000fb0060
:104c2c006101b90040fd2f00f1ff2f000200400090
:104c3c00838048008200200003002000820f500077
:104c4c00838f580025003e00000601000800370045
:104c5c000a0037000c0037000e0037001000370038
:104c6c001200370014003700160037001800370008
:104c7c001e00900050288900180037001e0090007c
:104c8c0060288900150037001e00900070288900ec
:104c9c00120037001e009000c02889000f0037005a
:104cac001e009000802889000c0037001e00900028
:104cbc0090288900090037001e009000a028890068
:104ccc00060037001e009000b02889000300370052
:104cdc001e009000d02889000000000060e3220034
:104cec00104078000000fb00c002b100e80f50003b
:104cfc0003003e00b60c070067f40700000000003c
:104d0c000080fa00000006000600fa00004f780050
:104d1c00120798002307980060e3220010407800e7
:104d2c000000fb006101b90090fc2f00f1ff2f0087
:104d3c000200400083804800e200200003002000b5
:104d4c00820f5000838f580030003e000006010097
:104d5c0026003700250037002400370023003700d9
:104d6c002200370021003700200037001f003700d9
:104d7c0006003700050037000c0037001300370021
:104d8c001a00370019003700180037001e01900078
:104d9c00ae0190009e40780050c0b3007efa070030
:104dac001007980021079800180037001e0190008a
:104dbc00ae0190009e40780040c0b30076fa070028
:104dcc001007980021079800100037001e01900072
:104ddc00ae0190009e40780020c0b3006efa070030
:104dec001007980021079800080037001e0190005a
:104dfc00ae0190009e4078000040eb0066fa070080
:104e0c0010079800210798000000000060e32200c2
:104e1c00104078000000fb006101b90090fc2f00ed
:104e2c00f1ff2f000200400083804800e2002000c8
:104e3c0003002000820f5000838f580043003e0077
:104e4c00000601000e00370010003700120037007a
:104e5c001400370016003700180037001a0037000e
:104e6c001c0037001e0037002200370026003700d8
:104e7c002a0037002c0037002e0037003000370096
:104e8c001e009000102a8900300037001e00900090
:104e9c00202a89002d0037001e009000102989005f
:104eac002a0037001e0090002029890027003700b7
:104ebc001e009000a0298900240037001e009000dd
:104ecc0040298900210037001e00900050298900dc
:104edc001e0037001e009000602989001b0037005f
:104eec001e009000ae009000b0298900c1298900f5
:104efc00160037001e009000ae009000d0298900eb
:104f0c00e1298900110037001e009000ae009000ce
:104f1c00f0298900012a89000c0037001e0090003e
:104f2c0030298900090037001e0090007029890083
:104f3c00060037001e00900080298900030037000e
:104f4c001e009000902989000000000060e3220000
:104f5c00104078000000fb007003b100ee0f500011
:104f6c0003003e00230c0700cff4070000000000f4
:104f7c000080fa00000006000600fa00004f7800de
:104f8c0012079800230798001e019000ae019000b4
:104f9c009e4078000040eb00fff9070010079800d6
:104fac002107980060e32200104078000000fb000d
:104fbc006101b900b0fc2f00f1ff2f00020040008e
:104fcc00838048002201200003002000820f500043
:104fdc00838f580020003e000006010012003700ad
:104fec00140037001c0037001b0037001a00370074
:104ffc00190037001800370017003700160037006b
:10500c00150037001400370013003700120037006a
:10501c0011003700100037000f0037000e0037006a
:10502c0007003700090037001e009000f02a8900a5
:10503c00090037001e009000002b89000600370085
:10504c001e009000102b8900030037001e009000fa
:10505c00202b89000000000060e322001040780043
:10506c000000fb006101b900b0fc2f00f1ff2f0024
:10507c000200400083804800220120000300200031
:10508c00820f5000838f580016003e00000601006e
:10509c0012003700110037001200370011003700e2
:1050ac00100037000f0037000e0037000d003700de
:1050bc000c0037000b0037000a00370009003700de
:1050cc0008003700070037000600370005003700de
:1050dc000400370001003700000037003df50700e1
:1050ec00000000000080fa00000006000600fa0034
:1050fc00004f7800120798002307980060e3220005
:10510c00104078000000fb008004b100e90f500053
:10511c0008003e001e019000ae0190009e407800f9
:10512c000040eb009cf9070010079800210798003d
:10513c000000000060e32200104078000000fb003b
:10514c006101b90080fb2f00f1ff2f00020040002d
:10515c00838048009200200003002000820f500042
:10516c00838f580029003e0000060100090037001b
:10517c000b0037000d0037000f003700110037000f
:10518c0013003700150037001700370019003700df
:10519c001b0037001e009000302a89001b003700ce
:1051ac001e009000402a8900180037001e00900055
:1051bc00502a8900150037001e009000602a8900d3
:1051cc00120037001e009000702a89000f00370073
:1051dc001e009000802a89000c0037001e009000f1
:1051ec00902a8900090037001e009000a02a89002f
:1051fc00060037001e009000b02a8900030037001b
:10520c001e009000c02a89000000000060e322000c
:10521c00104078000000fb008004b100e90f500042
:10522c0004003e007e0b0700820b070033f50700dd
:10523c00000000000080fa00000006001200fa00d6
:10524c00404f980072079800030f98004e4890004a
:10525c00e04f500047003a007e0090008e0890000e
:10526c00e00f5000e08f5800420034007e019000a7
:10527c008e099000ce4890000040eb0046f90700e4
:10528c0070079800010f980060e32200104078002e
:10529c000000fb00e20f40001c003200e10f400058
:1052ac0034003a007e0090008e08900002712200bb
:1052bc0003002000b5ec0700000f78007e00900082
:1052cc008e0890004206200003002000afec07007f
:1052dc004206200003002000bbec070010079800da
:1052ec007e0090008e0890004206200003002000f3
:1052fc00b5ec0700200798002e0190009e0090004e
:10530c001e007800673007001a0037007e009000fe
:10531c008e08900002712200030020009bec070015
:10532c00300798007e0090008e0890004206200006
:10533c000300200095ec070042062000030020002b
:10534c00a1ec0700400798007e0090008e089000aa
:10535c0042062000030020009bec07005007980039
:10536c005e019000ce0090003e0090008a30070055
:10537c00000000000080fa00000006000600fa00a1
:10538c00004f780012079800230798001e01900028
:10539c00ae0190009e4078000040eb00fef8070044
:1053ac00100798002107980060e322001040780055
:1053bc000000fb006101b900c000200001002000ca
:1053cc00020040008380480092002000030020006f
:1053dc00820f5000838f580029003e000006010008
:1053ec0024003700200037001c003700180037005d
:1053fc0014003700100037000c003700080037008d
:10540c0004003700000037001e009000302b89008c
:10541c001b0037001e009000402b8900180037003d
:10542c001e009000502b8900150037001e009000c4
:10543c00602b8900120037001e009000702b890031
:10544c000f0037001e009000802b89000c003700e5
:10545c001e009000902b8900090037001e00900060
:10546c00a02b8900060037001e009000b02b89008d
:10547c00030037001e009000c02b890000000000c4
:10548c0060e32200104078000000fb006c0040003c
:10549c00e90f500002003e0042f50700000000003a
:1054ac000080fa00000006000600fa00004f7800a9
:1054bc0012079800230798001e019000ae0190007f
:1054cc009e4078000040eb00b3f8070010079800ee
:1054dc002107980060e32200104078000000fb00d8
:1054ec00ee0f400005003200ed0f400006003a00c0
:1054fc001e009000d02b8900030037001e00900086
:10550c00e02b89000000000060e3220010407800ce
:10551c000000fb006e004000e10f500002003e0056
:10552c00caf50700000000000080fa000000060029
:10553c000600fa00004f7800120798002307980025
:10554c001e019000ae0190009e4078000040eb00e0
:10555c0091f80700100798002107980060e32200db
:10556c00104078000000fb006101b90060012000d0
:10557c0001002000020040008380480072002000df
:10558c0003002000820f5000838f580021003e0042
:10559c00000601001c00370018003700140037000b
:1055ac00100037000c0037000800370004003700eb
:1055bc00000037001e009000f02b8900150037000a
:1055cc001e009000002c8900120037001e00900075
:1055dc00102c89000f0037001e009000202c890031
:1055ec000c0037001e009000302c89000900370099
:1055fc001e009000402c8900060037001e00900011
:10560c00502c8900030037001e009000602c89008c
:10561c000000000060e32200104078000000fb0056
:10562c0076004000e70f500002003e00b1f5070085
:10563c00000000000080fa00000006000600fa00de
:10564c00004f780012079800230798001e01900065
:10565c00ae0190009e4078000040eb004ef8070031
:10566c00100798002107980060e322001040780092
:10567c000000fb006101b900800220000100200045
:10568c00020040008380480012012000030020002b
:10569c00820f5000838f580049003e000006010025
:1056ac0044003700400037003c003700380037001a
:1056bc0034003700300037002c003700280037004a
:1056cc0024003700200037001c003700180037007a
:1056dc0014003700100037000c00370008003700aa
:1056ec0004003700000037001e009000702c890069
:1056fc00330037001e009000802c890030003700ea
:10570c001e009000902c89002d0037001e00900088
:10571c00a02c89002a0037001e009000f02c890074
:10572c00270037001e009000002d89002400370050
:10573c001e009000102d8900210037001e009000e3
:10574c00202d89001e0037001e009000302d89008e
:10575c001b0037001e009000b02c89001800370089
:10576c001e009000c02c8900150037001e00900010
:10577c00d02c8900120037001e009000e02c89000c
:10578c000f0037001e009000402d89000c003700e0
:10579c001e009000502d8900090037001e0090005b
:1057ac00602d8900060037001e009000702d8900c6
:1057bc00030037001e009000802d890000000000bf
:1057cc0060e32200104078000000fb006101b9008a
:1057dc00800220000100200002004000838048006d
:1057ec001201200003002000820f5000838f58000c
:1057fc0017003e00000601001300370012003700ae
:10580c0011003700100037000f0037000c00370074
:10581c000b0037000a003700090037000a00370078
:10582c000900370008003700070037000600370072
:10583c00030037000200370001003700000037007a
:10584c00b6f50700020037003ef607000000000026
:10585c000080fa00000006000600fa00004f7800f5
:10586c0012079800230798001e019000ae019000cb
:10587c009e4078000040eb00c7f707001007980027
:10588c002107980060e32200104078000000fb0024
:10589c006101b9002003200001002000020040003b
:1058ac00838048009200200003002000820f5000eb
:1058bc00838f580029003e000006010024003700a9
:1058cc00200037001c003700180037001400370088
:1058dc00100037000c0037000800370004003700b8
:1058ec00000037001e009000902d89001b0037002f
:1058fc001e009000a02d8900180037001e0090009b
:10590c00b02d8900150037001e009000c02d8900b5
:10591c00120037001e009000d02d89000f003700b8
:10592c001e009000e02d89000c0037001e00900036
:10593c00f02d8900090037001e009000002e890010
:10594c00060037001e009000102e8900030037005f
:10595c001e009000202e89000000000060e3220051
:10596c00104078000000fb002003b000e90f50004d
:10597c0002003e009df60700000000000080fa00c7
:10598c00000006000e00fa0030079800014f980046
:10599c005207980063079800be009000700d20001d
:1059ac00808f500056003a000e489000e14f500096
:1059bc0052003a005e009000ee009000a200200021
:1059cc000300200000eb0700100798002107980047
:1059dc001e009000ae009000e00f5000e08f5800c9
:1059ec0004003d001e00900000407800004fea00cb
:1059fc00020037001e009000004f780060e3220088
:105a0c00104078000000fb000080e800e10f50001f
:105a1c0005003e005e019000ee0190001e407800f3
:105a2c0006fe0700330037005e019000ee01900087
:105a3c001e407800cefa07005e019000ee01900047
:105a4c001e4078006ffb07005e019000ee01900095
:105a5c001e407800affb07005e019000ee01900045
:105a6c001e40780048fc07005e019000ee0190009b
:105a7c001e407800a4fc07005e019000ee0190002f
:105a8c001e4078003cfd07005e019000ee01900086
:105a9c001e40780095fd07005e019000ee0190001d
:105aac001e40780035fe07005e019000ee0190006c
:105abc001e4078007cfe07005e019000ee01900015
:105acc001e4078009afe07005e019000ee019000e7
:105adc001e407800d9fe07005e019000ee01900098
:105aec001e4078005cff07000000eb00aa3a07009c
:105afc000000000000000000010037000000000062
:105b0c000080fa00000006000000fa00b0782200c5
:105b1c00104078000080fb006101b9000080eb00b0
:105b2c008080eb000200400083804800f2002000df
:105b3c0003002000820f5000838f5800eb003e00c2
:105b4c00000601000f0037001b003700270037004c
:105b5c00330037003f003700550037006100370035
:105b6c007700370083003700890037009500370035
:105b7c00a1003700ad003700b3003700c10037007b
:105b8c00cd003700c07822001040780081de220062
:105b9c0080487800d07822001040780091de2200f6
:105bac0080487800406f81008025890010c0b300c8
:105bbc004a080700cd003700c0782200104078005a
:105bcc0081de220080487800d078220010407800d6
:105bdc0091de220080487800406f8100902589007a
:105bec0010c0b3003d080700c0003700c078220089
:105bfc001040780081de220080487800d0782200a6
:105c0c001040780091de220080487800406f8100bf
:105c1c00a025890010c0b30030080700b30037007e
:105c2c00c07822001040780081de22008048780085
:105c3c00d07822001040780091de22008048780055
:105c4c00406f8100b025890010c0b3002308070005
